{
  "contractName": "SimpleStorage",
  "abi": [
    {
      "anonymous": false,
      "inputs": [
        {
          "indexed": false,
          "internalType": "uint256",
          "name": "data",
          "type": "uint256"
        }
      ],
      "name": "returnData",
      "type": "event"
    },
    {
      "inputs": [
        {
          "internalType": "uint256",
          "name": "_data",
          "type": "uint256"
        }
      ],
      "name": "updateData",
      "outputs": [],
      "stateMutability": "nonpayable",
      "type": "function"
    },
    {
      "inputs": [],
      "name": "readData",
      "outputs": [
        {
          "internalType": "uint256",
          "name": "",
          "type": "uint256"
        }
      ],
      "stateMutability": "nonpayable",
      "type": "function"
    }
  ],
  "bytecode": "0x608060405234801561001057600080fd5b5061018a806100206000396000f3fe608060405234801561001057600080fd5b50600436106100365760003560e01c806309e960081461003b578063bef55ef314610057575b600080fd5b610055600480360381019061005091906100fd565b610075565b005b61005f61007f565b60405161006c9190610139565b60405180910390f35b8060008190555050565b60007ffddec16a1db9d3dd43f059447f8f8235135b126bb6fb1a38418c8cf96243717f6000546040516100b29190610139565b60405180910390a1600054905090565b600080fd5b6000819050919050565b6100da816100c7565b81146100e557600080fd5b50565b6000813590506100f7816100d1565b92915050565b600060208284031215610113576101126100c2565b5b6000610121848285016100e8565b91505092915050565b610133816100c7565b82525050565b600060208201905061014e600083018461012a565b9291505056fea264697066735822122032966e5d11481f3d1b1420288b506afb4ee19bda8e1a9cedb090db585eb4eb6c64736f6c63430008110033",
  "immutableReferences": {},
  "source": "pragma solidity ^0.8.17;\r\n\r\ncontract SimpleStorage{\r\n    uint256 data;\r\n\r\n    event returnData(uint data);\r\n\r\n    function updateData(uint _data) external{\r\n        data = _data;\r\n    }\r\n\r\n    function readData() external returns(uint256){      \r\n      emit returnData(data);\r\n      return data;\r\n    }\r\n\r\n}\r\n\r\n",
  "sourcePath": "E:\\Expressjs\\smart contract\\contracts\\SimpleStorage.sol",
  "compiler": {
    "name": "solc",
    "version": "0.8.17+commit.8df45f5f.Emscripten.clang"
  },
  "schemaVersion": "3.4.11",
  "updatedAt": "2023-02-09T11:18:46.238Z",
  "networkType": "ethereum",
  "devdoc": {
    "kind": "dev",
    "methods": {},
    "version": 1
  },
  "userdoc": {
    "kind": "user",
    "methods": {},
    "version": 1
  }
}